{
  "contractName": "Simple",
  "abi": [
    {
      "inputs": [],
      "name": "myNumber",
      "outputs": [
        {
          "internalType": "uint256",
          "name": "",
          "type": "uint256"
        }
      ],
      "stateMutability": "view",
      "type": "function",
      "constant": true
    },
    {
      "inputs": [
        {
          "internalType": "uint256",
          "name": "_newNumber",
          "type": "uint256"
        }
      ],
      "name": "changeNumber",
      "outputs": [],
      "stateMutability": "nonpayable",
      "type": "function"
    }
  ],
  "bytecode": "0x6080604052600560005534801561001557600080fd5b50610133806100256000396000f3fe6080604052348015600f57600080fd5b506004361060325760003560e01c806307391dd614603757806323fd0e4014604f575b600080fd5b604d600480360381019060499190608c565b6069565b005b60556073565b6040516060919060c1565b60405180910390f35b8060008190555050565b60005481565b60008135905060868160e9565b92915050565b600060208284031215609f57609e60e4565b5b600060ab848285016079565b91505092915050565b60bb8160da565b82525050565b600060208201905060d4600083018460b4565b92915050565b6000819050919050565b600080fd5b60f08160da565b811460fa57600080fd5b5056fea2646970667358221220f16f3a366ef1d14dd1fbd28af9c5c73cb5b55343122f67e3de2f3de11c81980964736f6c63430008070033",
  "immutableReferences": {},
  "source": "//SPDX-License-Identifier: GPL-3.0\r\n\r\npragma solidity >=0.8.7;\r\n\r\ncontract Simple {\r\n\tuint public myNumber = 5;\r\n\r\n\tfunction changeNumber(uint _newNumber) external {\r\n\t\tmyNumber = _newNumber;\r\n\t}\r\n}\r\n",
  "sourcePath": "C:\\Users\\Abdulhakim\\Desktop\\folder\\0_block\\SOLIDITY-web3-youtube\\mumbai_truffle\\contracts\\Simple.sol",
  "compiler": {
    "name": "solc",
    "version": "0.8.7+commit.e28d00a7.Emscripten.clang"
  },
  "schemaVersion": "3.4.7",
  "updatedAt": "2022-06-23T20:27:47.541Z",
  "networkType": "ethereum",
  "devdoc": {
    "kind": "dev",
    "methods": {},
    "version": 1
  },
  "userdoc": {
    "kind": "user",
    "methods": {},
    "version": 1
  }
}